{
  "_format": "hh-sol-artifact-1",
  "contractName": "SuperMarioWorldCollection",
  "sourceName": "contracts/SuperMarioWorldCollection.sol",
  "abi": [
    {
      "inputs": [
        {
          "internalType": "string",
          "name": "_name",
          "type": "string"
        },
        {
          "internalType": "string",
          "name": "_symbol",
          "type": "string"
        },
        {
          "internalType": "string",
          "name": "_baseUri",
          "type": "string"
        }
      ],
      "stateMutability": "nonpayable",
      "type": "constructor"
    },
    {
      "anonymous": false,
      "inputs": [
        {
          "indexed": true,
          "internalType": "address",
          "name": "account",
          "type": "address"
        },
        {
          "indexed": true,
          "internalType": "address",
          "name": "operator",
          "type": "address"
        },
        {
          "indexed": false,
          "internalType": "bool",
          "name": "approved",
          "type": "bool"
        }
      ],
      "name": "ApprovalForAll",
      "type": "event"
    },
    {
      "anonymous": false,
      "inputs": [
        {
          "indexed": true,
          "internalType": "address",
          "name": "previousOwner",
          "type": "address"
        },
        {
          "indexed": true,
          "internalType": "address",
          "name": "newOwner",
          "type": "address"
        }
      ],
      "name": "OwnershipTransferred",
      "type": "event"
    },
    {
      "anonymous": false,
      "inputs": [
        {
          "indexed": true,
          "internalType": "address",
          "name": "operator",
          "type": "address"
        },
        {
          "indexed": true,
          "internalType": "address",
          "name": "from",
          "type": "address"
        },
        {
          "indexed": true,
          "internalType": "address",
          "name": "to",
          "type": "address"
        },
        {
          "indexed": false,
          "internalType": "uint256[]",
          "name": "ids",
          "type": "uint256[]"
        },
        {
          "indexed": false,
          "internalType": "uint256[]",
          "name": "values",
          "type": "uint256[]"
        }
      ],
      "name": "TransferBatch",
      "type": "event"
    },
    {
      "anonymous": false,
      "inputs": [
        {
          "indexed": true,
          "internalType": "address",
          "name": "operator",
          "type": "address"
        },
        {
          "indexed": true,
          "internalType": "address",
          "name": "from",
          "type": "address"
        },
        {
          "indexed": true,
          "internalType": "address",
          "name": "to",
          "type": "address"
        },
        {
          "indexed": false,
          "internalType": "uint256",
          "name": "id",
          "type": "uint256"
        },
        {
          "indexed": false,
          "internalType": "uint256",
          "name": "value",
          "type": "uint256"
        }
      ],
      "name": "TransferSingle",
      "type": "event"
    },
    {
      "anonymous": false,
      "inputs": [
        {
          "indexed": false,
          "internalType": "string",
          "name": "value",
          "type": "string"
        },
        {
          "indexed": true,
          "internalType": "uint256",
          "name": "id",
          "type": "uint256"
        }
      ],
      "name": "URI",
      "type": "event"
    },
    {
      "inputs": [
        {
          "internalType": "address",
          "name": "account",
          "type": "address"
        },
        {
          "internalType": "uint256",
          "name": "id",
          "type": "uint256"
        }
      ],
      "name": "balanceOf",
      "outputs": [
        {
          "internalType": "uint256",
          "name": "",
          "type": "uint256"
        }
      ],
      "stateMutability": "view",
      "type": "function"
    },
    {
      "inputs": [
        {
          "internalType": "address[]",
          "name": "accounts",
          "type": "address[]"
        },
        {
          "internalType": "uint256[]",
          "name": "ids",
          "type": "uint256[]"
        }
      ],
      "name": "balanceOfBatch",
      "outputs": [
        {
          "internalType": "uint256[]",
          "name": "",
          "type": "uint256[]"
        }
      ],
      "stateMutability": "view",
      "type": "function"
    },
    {
      "inputs": [],
      "name": "baseUri",
      "outputs": [
        {
          "internalType": "string",
          "name": "",
          "type": "string"
        }
      ],
      "stateMutability": "view",
      "type": "function"
    },
    {
      "inputs": [
        {
          "internalType": "address",
          "name": "account",
          "type": "address"
        },
        {
          "internalType": "address",
          "name": "operator",
          "type": "address"
        }
      ],
      "name": "isApprovedForAll",
      "outputs": [
        {
          "internalType": "bool",
          "name": "",
          "type": "bool"
        }
      ],
      "stateMutability": "view",
      "type": "function"
    },
    {
      "inputs": [
        {
          "internalType": "uint256",
          "name": "amount",
          "type": "uint256"
        }
      ],
      "name": "mint",
      "outputs": [],
      "stateMutability": "nonpayable",
      "type": "function"
    },
    {
      "inputs": [],
      "name": "name",
      "outputs": [
        {
          "internalType": "string",
          "name": "",
          "type": "string"
        }
      ],
      "stateMutability": "view",
      "type": "function"
    },
    {
      "inputs": [],
      "name": "owner",
      "outputs": [
        {
          "internalType": "address",
          "name": "",
          "type": "address"
        }
      ],
      "stateMutability": "view",
      "type": "function"
    },
    {
      "inputs": [],
      "name": "renounceOwnership",
      "outputs": [],
      "stateMutability": "nonpayable",
      "type": "function"
    },
    {
      "inputs": [
        {
          "internalType": "address",
          "name": "from",
          "type": "address"
        },
        {
          "internalType": "address",
          "name": "to",
          "type": "address"
        },
        {
          "internalType": "uint256[]",
          "name": "ids",
          "type": "uint256[]"
        },
        {
          "internalType": "uint256[]",
          "name": "amounts",
          "type": "uint256[]"
        },
        {
          "internalType": "bytes",
          "name": "data",
          "type": "bytes"
        }
      ],
      "name": "safeBatchTransferFrom",
      "outputs": [],
      "stateMutability": "nonpayable",
      "type": "function"
    },
    {
      "inputs": [
        {
          "internalType": "address",
          "name": "from",
          "type": "address"
        },
        {
          "internalType": "address",
          "name": "to",
          "type": "address"
        },
        {
          "internalType": "uint256",
          "name": "id",
          "type": "uint256"
        },
        {
          "internalType": "uint256",
          "name": "amount",
          "type": "uint256"
        },
        {
          "internalType": "bytes",
          "name": "data",
          "type": "bytes"
        }
      ],
      "name": "safeTransferFrom",
      "outputs": [],
      "stateMutability": "nonpayable",
      "type": "function"
    },
    {
      "inputs": [
        {
          "internalType": "address",
          "name": "operator",
          "type": "address"
        },
        {
          "internalType": "bool",
          "name": "approved",
          "type": "bool"
        }
      ],
      "name": "setApprovalForAll",
      "outputs": [],
      "stateMutability": "nonpayable",
      "type": "function"
    },
    {
      "inputs": [
        {
          "internalType": "bytes4",
          "name": "interfaceId",
          "type": "bytes4"
        }
      ],
      "name": "supportsInterface",
      "outputs": [
        {
          "internalType": "bool",
          "name": "",
          "type": "bool"
        }
      ],
      "stateMutability": "view",
      "type": "function"
    },
    {
      "inputs": [],
      "name": "symbol",
      "outputs": [
        {
          "internalType": "string",
          "name": "",
          "type": "string"
        }
      ],
      "stateMutability": "view",
      "type": "function"
    },
    {
      "inputs": [],
      "name": "tokenCount",
      "outputs": [
        {
          "internalType": "uint256",
          "name": "",
          "type": "uint256"
        }
      ],
      "stateMutability": "view",
      "type": "function"
    },
    {
      "inputs": [
        {
          "internalType": "address",
          "name": "newOwner",
          "type": "address"
        }
      ],
      "name": "transferOwnership",
      "outputs": [],
      "stateMutability": "nonpayable",
      "type": "function"
    },
    {
      "inputs": [
        {
          "internalType": "uint256",
          "name": "_tokenId",
          "type": "uint256"
        }
      ],
      "name": "uri",
      "outputs": [
        {
          "internalType": "string",
          "name": "",
          "type": "string"
        }
      ],
      "stateMutability": "view",
      "type": "function"
    }
  ],
  "bytecode": "0x60806040523480156200001157600080fd5b5060405162003653380380620036538339818101604052810190620000379190620003f5565b806200004981620000be60201b60201c565b506200006a6200005e620000da60201b60201c565b620000e260201b60201c565b826004908051906020019062000082929190620001a8565b5081600590805190602001906200009b929190620001a8565b508060079080519060200190620000b4929190620001a8565b5050505062000513565b8060029080519060200190620000d6929190620001a8565b5050565b600033905090565b6000600360009054906101000a900473ffffffffffffffffffffffffffffffffffffffff16905081600360006101000a81548173ffffffffffffffffffffffffffffffffffffffff021916908373ffffffffffffffffffffffffffffffffffffffff1602179055508173ffffffffffffffffffffffffffffffffffffffff168173ffffffffffffffffffffffffffffffffffffffff167f8be0079c531659141344cd1fd0a4f28419497f9722a3daafe3b4186f6b6457e060405160405180910390a35050565b828054620001b690620004dd565b90600052602060002090601f016020900481019282620001da576000855562000226565b82601f10620001f557805160ff191683800117855562000226565b8280016001018555821562000226579182015b828111156200022557825182559160200191906001019062000208565b5b50905062000235919062000239565b5090565b5b80821115620002545760008160009055506001016200023a565b5090565b6000604051905090565b600080fd5b600080fd5b600080fd5b600080fd5b6000601f19601f8301169050919050565b7f4e487b7100000000000000000000000000000000000000000000000000000000600052604160045260246000fd5b620002c18262000276565b810181811067ffffffffffffffff82111715620002e357620002e262000287565b5b80604052505050565b6000620002f862000258565b9050620003068282620002b6565b919050565b600067ffffffffffffffff82111562000329576200032862000287565b5b620003348262000276565b9050602081019050919050565b60005b838110156200036157808201518184015260208101905062000344565b8381111562000371576000848401525b50505050565b60006200038e62000388846200030b565b620002ec565b905082815260208101848484011115620003ad57620003ac62000271565b5b620003ba84828562000341565b509392505050565b600082601f830112620003da57620003d96200026c565b5b8151620003ec84826020860162000377565b91505092915050565b60008060006060848603121562000411576200041062000262565b5b600084015167ffffffffffffffff81111562000432576200043162000267565b5b6200044086828701620003c2565b935050602084015167ffffffffffffffff81111562000464576200046362000267565b5b6200047286828701620003c2565b925050604084015167ffffffffffffffff81111562000496576200049562000267565b5b620004a486828701620003c2565b9150509250925092565b7f4e487b7100000000000000000000000000000000000000000000000000000000600052602260045260246000fd5b60006002820490506001821680620004f657607f821691505b602082108114156200050d576200050c620004ae565b5b50919050565b61313080620005236000396000f3fe608060405234801561001057600080fd5b50600436106100ff5760003560e01c806395d89b4111610097578063a22cb46511610066578063a22cb4651461029c578063e985e9c5146102b8578063f242432a146102e8578063f2fde38b14610304576100ff565b806395d89b41146102265780639abc8320146102445780639f181b5e14610262578063a0712d6814610280576100ff565b80632eb2c2d6116100d35780632eb2c2d6146101b25780634e1273f4146101ce578063715018a6146101fe5780638da5cb5b14610208576100ff565b8062fdd58e1461010457806301ffc9a71461013457806306fdde03146101645780630e89341c14610182575b600080fd5b61011e60048036038101906101199190611bce565b610320565b60405161012b9190611c1d565b60405180910390f35b61014e60048036038101906101499190611c90565b6103e9565b60405161015b9190611cd8565b60405180910390f35b61016c6104cb565b6040516101799190611d8c565b60405180910390f35b61019c60048036038101906101979190611dae565b610559565b6040516101a99190611d8c565b60405180910390f35b6101cc60048036038101906101c79190611fd8565b61058d565b005b6101e860048036038101906101e3919061216a565b61062e565b6040516101f591906122a0565b60405180910390f35b610206610747565b005b61021061075b565b60405161021d91906122d1565b60405180910390f35b61022e610785565b60405161023b9190611d8c565b60405180910390f35b61024c610813565b6040516102599190611d8c565b60405180910390f35b61026a6108a1565b6040516102779190611c1d565b60405180910390f35b61029a60048036038101906102959190611dae565b6108a7565b005b6102b660048036038101906102b19190612318565b6108e9565b005b6102d260048036038101906102cd9190612358565b6108ff565b6040516102df9190611cd8565b60405180910390f35b61030260048036038101906102fd9190612398565b610993565b005b61031e6004803603810190610319919061242f565b610a34565b005b60008073ffffffffffffffffffffffffffffffffffffffff168373ffffffffffffffffffffffffffffffffffffffff161415610391576040517f08c379a0000000000000000000000000000000000000000000000000000000008152600401610388906124ce565b60405180910390fd5b60008083815260200190815260200160002060008473ffffffffffffffffffffffffffffffffffffffff1673ffffffffffffffffffffffffffffffffffffffff16815260200190815260200160002054905092915050565b60007fd9b67a26000000000000000000000000000000000000000000000000000000007bffffffffffffffffffffffffffffffffffffffffffffffffffffffff1916827bffffffffffffffffffffffffffffffffffffffffffffffffffffffff191614806104b457507f0e89341c000000000000000000000000000000000000000000000000000000007bffffffffffffffffffffffffffffffffffffffffffffffffffffffff1916827bffffffffffffffffffffffffffffffffffffffffffffffffffffffff1916145b806104c457506104c382610ab8565b5b9050919050565b600480546104d89061251d565b80601f01602080910402602001604051908101604052809291908181526020018280546105049061251d565b80156105515780601f1061052657610100808354040283529160200191610551565b820191906000526020600020905b81548152906001019060200180831161053457829003601f168201915b505050505081565b6060600761056683610b22565b60405160200161057792919061266b565b6040516020818303038152906040529050919050565b610595610c83565b73ffffffffffffffffffffffffffffffffffffffff168573ffffffffffffffffffffffffffffffffffffffff1614806105db57506105da856105d5610c83565b6108ff565b5b61061a576040517f08c379a00000000000000000000000000000000000000000000000000000000081526004016106119061270c565b60405180910390fd5b6106278585858585610c8b565b5050505050565b60608151835114610674576040517f08c379a000000000000000000000000000000000000000000000000000000000815260040161066b9061279e565b60405180910390fd5b6000835167ffffffffffffffff81111561069157610690611de0565b5b6040519080825280602002602001820160405280156106bf5781602001602082028036833780820191505090505b50905060005b845181101561073c5761070c8582815181106106e4576106e36127be565b5b60200260200101518583815181106106ff576106fe6127be565b5b6020026020010151610320565b82828151811061071f5761071e6127be565b5b602002602001018181525050806107359061281c565b90506106c5565b508091505092915050565b61074f610fad565b610759600061102b565b565b6000600360009054906101000a900473ffffffffffffffffffffffffffffffffffffffff16905090565b600580546107929061251d565b80601f01602080910402602001604051908101604052809291908181526020018280546107be9061251d565b801561080b5780601f106107e05761010080835404028352916020019161080b565b820191906000526020600020905b8154815290600101906020018083116107ee57829003601f168201915b505050505081565b600780546108209061251d565b80601f016020809104026020016040519081016040528092919081815260200182805461084c9061251d565b80156108995780601f1061086e57610100808354040283529160200191610899565b820191906000526020600020905b81548152906001019060200180831161087c57829003601f168201915b505050505081565b60065481565b6108af610fad565b6001600660008282546108c29190612865565b925050819055506108e63360065483604051806020016040528060008152506110f1565b50565b6108fb6108f4610c83565b83836112a2565b5050565b6000600160008473ffffffffffffffffffffffffffffffffffffffff1673ffffffffffffffffffffffffffffffffffffffff16815260200190815260200160002060008373ffffffffffffffffffffffffffffffffffffffff1673ffffffffffffffffffffffffffffffffffffffff16815260200190815260200160002060009054906101000a900460ff16905092915050565b61099b610c83565b73ffffffffffffffffffffffffffffffffffffffff168573ffffffffffffffffffffffffffffffffffffffff1614806109e157506109e0856109db610c83565b6108ff565b5b610a20576040517f08c379a0000000000000000000000000000000000000000000000000000000008152600401610a179061270c565b60405180910390fd5b610a2d858585858561140f565b5050505050565b610a3c610fad565b600073ffffffffffffffffffffffffffffffffffffffff168173ffffffffffffffffffffffffffffffffffffffff161415610aac576040517f08c379a0000000000000000000000000000000000000000000000000000000008152600401610aa39061292d565b60405180910390fd5b610ab58161102b565b50565b60007f01ffc9a7000000000000000000000000000000000000000000000000000000007bffffffffffffffffffffffffffffffffffffffffffffffffffffffff1916827bffffffffffffffffffffffffffffffffffffffffffffffffffffffff1916149050919050565b60606000821415610b6a576040518060400160405280600181526020017f30000000000000000000000000000000000000000000000000000000000000008152509050610c7e565b600082905060005b60008214610b9c578080610b859061281c565b915050600a82610b95919061297c565b9150610b72565b60008167ffffffffffffffff811115610bb857610bb7611de0565b5b6040519080825280601f01601f191660200182016040528015610bea5781602001600182028036833780820191505090505b5090505b60008514610c7757600182610c0391906129ad565b9150600a85610c1291906129e1565b6030610c1e9190612865565b60f81b818381518110610c3457610c336127be565b5b60200101907effffffffffffffffffffffffffffffffffffffffffffffffffffffffffffff1916908160001a905350600a85610c70919061297c565b9450610bee565b8093505050505b919050565b600033905090565b8151835114610ccf576040517f08c379a0000000000000000000000000000000000000000000000000000000008152600401610cc690612a84565b60405180910390fd5b600073ffffffffffffffffffffffffffffffffffffffff168473ffffffffffffffffffffffffffffffffffffffff161415610d3f576040517f08c379a0000000000000000000000000000000000000000000000000000000008152600401610d3690612b16565b60405180910390fd5b6000610d49610c83565b9050610d598187878787876116ab565b60005b8451811015610f0a576000858281518110610d7a57610d796127be565b5b602002602001015190506000858381518110610d9957610d986127be565b5b60200260200101519050600080600084815260200190815260200160002060008b73ffffffffffffffffffffffffffffffffffffffff1673ffffffffffffffffffffffffffffffffffffffff16815260200190815260200160002054905081811015610e3a576040517f08c379a0000000000000000000000000000000000000000000000000000000008152600401610e3190612ba8565b60405180910390fd5b81810360008085815260200190815260200160002060008c73ffffffffffffffffffffffffffffffffffffffff1673ffffffffffffffffffffffffffffffffffffffff168152602001908152602001600020819055508160008085815260200190815260200160002060008b73ffffffffffffffffffffffffffffffffffffffff1673ffffffffffffffffffffffffffffffffffffffff1681526020019081526020016000206000828254610eef9190612865565b9250508190555050505080610f039061281c565b9050610d5c565b508473ffffffffffffffffffffffffffffffffffffffff168673ffffffffffffffffffffffffffffffffffffffff168273ffffffffffffffffffffffffffffffffffffffff167f4a39dc06d4c0dbc64b70af90fd698a233a518aa5d07e595d983b8c0526c8f7fb8787604051610f81929190612bc8565b60405180910390a4610f978187878787876116b3565b610fa58187878787876116bb565b505050505050565b610fb5610c83565b73ffffffffffffffffffffffffffffffffffffffff16610fd361075b565b73ffffffffffffffffffffffffffffffffffffffff1614611029576040517f08c379a000000000000000000000000000000000000000000000000000000000815260040161102090612c4b565b60405180910390fd5b565b6000600360009054906101000a900473ffffffffffffffffffffffffffffffffffffffff16905081600360006101000a81548173ffffffffffffffffffffffffffffffffffffffff021916908373ffffffffffffffffffffffffffffffffffffffff1602179055508173ffffffffffffffffffffffffffffffffffffffff168173ffffffffffffffffffffffffffffffffffffffff167f8be0079c531659141344cd1fd0a4f28419497f9722a3daafe3b4186f6b6457e060405160405180910390a35050565b600073ffffffffffffffffffffffffffffffffffffffff168473ffffffffffffffffffffffffffffffffffffffff161415611161576040517f08c379a000000000000000000000000000000000000000000000000000000000815260040161115890612cdd565b60405180910390fd5b600061116b610c83565b90506000611178856118a2565b90506000611185856118a2565b9050611196836000898585896116ab565b8460008088815260200190815260200160002060008973ffffffffffffffffffffffffffffffffffffffff1673ffffffffffffffffffffffffffffffffffffffff16815260200190815260200160002060008282546111f59190612865565b925050819055508673ffffffffffffffffffffffffffffffffffffffff16600073ffffffffffffffffffffffffffffffffffffffff168473ffffffffffffffffffffffffffffffffffffffff167fc3d58168c5ae7397731d063d5bbf3d657854427343f4c083240f7aacaa2d0f628989604051611273929190612cfd565b60405180910390a461128a836000898585896116b3565b6112998360008989898961191c565b50505050505050565b8173ffffffffffffffffffffffffffffffffffffffff168373ffffffffffffffffffffffffffffffffffffffff161415611311576040517f08c379a000000000000000000000000000000000000000000000000000000000815260040161130890612d98565b60405180910390fd5b80600160008573ffffffffffffffffffffffffffffffffffffffff1673ffffffffffffffffffffffffffffffffffffffff16815260200190815260200160002060008473ffffffffffffffffffffffffffffffffffffffff1673ffffffffffffffffffffffffffffffffffffffff16815260200190815260200160002060006101000a81548160ff0219169083151502179055508173ffffffffffffffffffffffffffffffffffffffff168373ffffffffffffffffffffffffffffffffffffffff167f17307eab39ab6107e8899845ad3d59bd9653f200f220920489ca2b5937696c31836040516114029190611cd8565b60405180910390a3505050565b600073ffffffffffffffffffffffffffffffffffffffff168473ffffffffffffffffffffffffffffffffffffffff16141561147f576040517f08c379a000000000000000000000000000000000000000000000000000000000815260040161147690612b16565b60405180910390fd5b6000611489610c83565b90506000611496856118a2565b905060006114a3856118a2565b90506114b38389898585896116ab565b600080600088815260200190815260200160002060008a73ffffffffffffffffffffffffffffffffffffffff1673ffffffffffffffffffffffffffffffffffffffff1681526020019081526020016000205490508581101561154a576040517f08c379a000000000000000000000000000000000000000000000000000000000815260040161154190612ba8565b60405180910390fd5b85810360008089815260200190815260200160002060008b73ffffffffffffffffffffffffffffffffffffffff1673ffffffffffffffffffffffffffffffffffffffff168152602001908152602001600020819055508560008089815260200190815260200160002060008a73ffffffffffffffffffffffffffffffffffffffff1673ffffffffffffffffffffffffffffffffffffffff16815260200190815260200160002060008282546115ff9190612865565b925050819055508773ffffffffffffffffffffffffffffffffffffffff168973ffffffffffffffffffffffffffffffffffffffff168573ffffffffffffffffffffffffffffffffffffffff167fc3d58168c5ae7397731d063d5bbf3d657854427343f4c083240f7aacaa2d0f628a8a60405161167c929190612cfd565b60405180910390a4611692848a8a86868a6116b3565b6116a0848a8a8a8a8a61191c565b505050505050505050565b505050505050565b505050505050565b6116da8473ffffffffffffffffffffffffffffffffffffffff16611b03565b1561189a578373ffffffffffffffffffffffffffffffffffffffff1663bc197c8187878686866040518663ffffffff1660e01b8152600401611720959493929190612e0d565b602060405180830381600087803b15801561173a57600080fd5b505af192505050801561176b57506040513d601f19601f820116820180604052508101906117689190612e8a565b60015b61181157611777612ec4565b806308c379a014156117d4575061178c612ee6565b8061179757506117d6565b806040517f08c379a00000000000000000000000000000000000000000000000000000000081526004016117cb9190611d8c565b60405180910390fd5b505b6040517f08c379a000000000000000000000000000000000000000000000000000000000815260040161180890612fee565b60405180910390fd5b63bc197c8160e01b7bffffffffffffffffffffffffffffffffffffffffffffffffffffffff1916817bffffffffffffffffffffffffffffffffffffffffffffffffffffffff191614611898576040517f08c379a000000000000000000000000000000000000000000000000000000000815260040161188f90613080565b60405180910390fd5b505b505050505050565b60606000600167ffffffffffffffff8111156118c1576118c0611de0565b5b6040519080825280602002602001820160405280156118ef5781602001602082028036833780820191505090505b5090508281600081518110611907576119066127be565b5b60200260200101818152505080915050919050565b61193b8473ffffffffffffffffffffffffffffffffffffffff16611b03565b15611afb578373ffffffffffffffffffffffffffffffffffffffff1663f23a6e6187878686866040518663ffffffff1660e01b81526004016119819594939291906130a0565b602060405180830381600087803b15801561199b57600080fd5b505af19250505080156119cc57506040513d601f19601f820116820180604052508101906119c99190612e8a565b60015b611a72576119d8612ec4565b806308c379a01415611a3557506119ed612ee6565b806119f85750611a37565b806040517f08c379a0000000000000000000000000000000000000000000000000000000008152600401611a2c9190611d8c565b60405180910390fd5b505b6040517f08c379a0000000000000000000000000000000000000000000000000000000008152600401611a6990612fee565b60405180910390fd5b63f23a6e6160e01b7bffffffffffffffffffffffffffffffffffffffffffffffffffffffff1916817bffffffffffffffffffffffffffffffffffffffffffffffffffffffff191614611af9576040517f08c379a0000000000000000000000000000000000000000000000000000000008152600401611af090613080565b60405180910390fd5b505b505050505050565b6000808273ffffffffffffffffffffffffffffffffffffffff163b119050919050565b6000604051905090565b600080fd5b600080fd5b600073ffffffffffffffffffffffffffffffffffffffff82169050919050565b6000611b6582611b3a565b9050919050565b611b7581611b5a565b8114611b8057600080fd5b50565b600081359050611b9281611b6c565b92915050565b6000819050919050565b611bab81611b98565b8114611bb657600080fd5b50565b600081359050611bc881611ba2565b92915050565b60008060408385031215611be557611be4611b30565b5b6000611bf385828601611b83565b9250506020611c0485828601611bb9565b9150509250929050565b611c1781611b98565b82525050565b6000602082019050611c326000830184611c0e565b92915050565b60007fffffffff0000000000000000000000000000000000000000000000000000000082169050919050565b611c6d81611c38565b8114611c7857600080fd5b50565b600081359050611c8a81611c64565b92915050565b600060208284031215611ca657611ca5611b30565b5b6000611cb484828501611c7b565b91505092915050565b60008115159050919050565b611cd281611cbd565b82525050565b6000602082019050611ced6000830184611cc9565b92915050565b600081519050919050565b600082825260208201905092915050565b60005b83811015611d2d578082015181840152602081019050611d12565b83811115611d3c576000848401525b50505050565b6000601f19601f8301169050919050565b6000611d5e82611cf3565b611d688185611cfe565b9350611d78818560208601611d0f565b611d8181611d42565b840191505092915050565b60006020820190508181036000830152611da68184611d53565b905092915050565b600060208284031215611dc457611dc3611b30565b5b6000611dd284828501611bb9565b91505092915050565b600080fd5b7f4e487b7100000000000000000000000000000000000000000000000000000000600052604160045260246000fd5b611e1882611d42565b810181811067ffffffffffffffff82111715611e3757611e36611de0565b5b80604052505050565b6000611e4a611b26565b9050611e568282611e0f565b919050565b600067ffffffffffffffff821115611e7657611e75611de0565b5b602082029050602081019050919050565b600080fd5b6000611e9f611e9a84611e5b565b611e40565b90508083825260208201905060208402830185811115611ec257611ec1611e87565b5b835b81811015611eeb5780611ed78882611bb9565b845260208401935050602081019050611ec4565b5050509392505050565b600082601f830112611f0a57611f09611ddb565b5b8135611f1a848260208601611e8c565b91505092915050565b600080fd5b600067ffffffffffffffff821115611f4357611f42611de0565b5b611f4c82611d42565b9050602081019050919050565b82818337600083830152505050565b6000611f7b611f7684611f28565b611e40565b905082815260208101848484011115611f9757611f96611f23565b5b611fa2848285611f59565b509392505050565b600082601f830112611fbf57611fbe611ddb565b5b8135611fcf848260208601611f68565b91505092915050565b600080600080600060a08688031215611ff457611ff3611b30565b5b600061200288828901611b83565b955050602061201388828901611b83565b945050604086013567ffffffffffffffff81111561203457612033611b35565b5b61204088828901611ef5565b935050606086013567ffffffffffffffff81111561206157612060611b35565b5b61206d88828901611ef5565b925050608086013567ffffffffffffffff81111561208e5761208d611b35565b5b61209a88828901611faa565b9150509295509295909350565b600067ffffffffffffffff8211156120c2576120c1611de0565b5b602082029050602081019050919050565b60006120e66120e1846120a7565b611e40565b9050808382526020820190506020840283018581111561210957612108611e87565b5b835b81811015612132578061211e8882611b83565b84526020840193505060208101905061210b565b5050509392505050565b600082601f83011261215157612150611ddb565b5b81356121618482602086016120d3565b91505092915050565b6000806040838503121561218157612180611b30565b5b600083013567ffffffffffffffff81111561219f5761219e611b35565b5b6121ab8582860161213c565b925050602083013567ffffffffffffffff8111156121cc576121cb611b35565b5b6121d885828601611ef5565b9150509250929050565b600081519050919050565b600082825260208201905092915050565b6000819050602082019050919050565b61221781611b98565b82525050565b6000612229838361220e565b60208301905092915050565b6000602082019050919050565b600061224d826121e2565b61225781856121ed565b9350612262836121fe565b8060005b8381101561229357815161227a888261221d565b975061228583612235565b925050600181019050612266565b5085935050505092915050565b600060208201905081810360008301526122ba8184612242565b905092915050565b6122cb81611b5a565b82525050565b60006020820190506122e660008301846122c2565b92915050565b6122f581611cbd565b811461230057600080fd5b50565b600081359050612312816122ec565b92915050565b6000806040838503121561232f5761232e611b30565b5b600061233d85828601611b83565b925050602061234e85828601612303565b9150509250929050565b6000806040838503121561236f5761236e611b30565b5b600061237d85828601611b83565b925050602061238e85828601611b83565b9150509250929050565b600080600080600060a086880312156123b4576123b3611b30565b5b60006123c288828901611b83565b95505060206123d388828901611b83565b94505060406123e488828901611bb9565b93505060606123f588828901611bb9565b925050608086013567ffffffffffffffff81111561241657612415611b35565b5b61242288828901611faa565b9150509295509295909350565b60006020828403121561244557612444611b30565b5b600061245384828501611b83565b91505092915050565b7f455243313135353a2061646472657373207a65726f206973206e6f742061207660008201527f616c6964206f776e657200000000000000000000000000000000000000000000602082015250565b60006124b8602a83611cfe565b91506124c38261245c565b604082019050919050565b600060208201905081810360008301526124e7816124ab565b9050919050565b7f4e487b7100000000000000000000000000000000000000000000000000000000600052602260045260246000fd5b6000600282049050600182168061253557607f821691505b60208210811415612549576125486124ee565b5b50919050565b600081905092915050565b60008190508160005260206000209050919050565b6000815461257c8161251d565b612586818661254f565b945060018216600081146125a157600181146125b2576125e5565b60ff198316865281860193506125e5565b6125bb8561255a565b60005b838110156125dd578154818901526001820191506020810190506125be565b838801955050505b50505092915050565b60006125f982611cf3565b612603818561254f565b9350612613818560208601611d0f565b80840191505092915050565b7f2e6a736f6e000000000000000000000000000000000000000000000000000000600082015250565b600061265560058361254f565b91506126608261261f565b600582019050919050565b6000612677828561256f565b915061268382846125ee565b915061268e82612648565b91508190509392505050565b7f455243313135353a2063616c6c6572206973206e6f7420746f6b656e206f776e60008201527f6572206e6f7220617070726f7665640000000000000000000000000000000000602082015250565b60006126f6602f83611cfe565b91506127018261269a565b604082019050919050565b60006020820190508181036000830152612725816126e9565b9050919050565b7f455243313135353a206163636f756e747320616e6420696473206c656e67746860008201527f206d69736d617463680000000000000000000000000000000000000000000000602082015250565b6000612788602983611cfe565b91506127938261272c565b604082019050919050565b600060208201905081810360008301526127b78161277b565b9050919050565b7f4e487b7100000000000000000000000000000000000000000000000000000000600052603260045260246000fd5b7f4e487b7100000000000000000000000000000000000000000000000000000000600052601160045260246000fd5b600061282782611b98565b91507fffffffffffffffffffffffffffffffffffffffffffffffffffffffffffffffff82141561285a576128596127ed565b5b600182019050919050565b600061287082611b98565b915061287b83611b98565b9250827fffffffffffffffffffffffffffffffffffffffffffffffffffffffffffffffff038211156128b0576128af6127ed565b5b828201905092915050565b7f4f776e61626c653a206e6577206f776e657220697320746865207a65726f206160008201527f6464726573730000000000000000000000000000000000000000000000000000602082015250565b6000612917602683611cfe565b9150612922826128bb565b604082019050919050565b600060208201905081810360008301526129468161290a565b9050919050565b7f4e487b7100000000000000000000000000000000000000000000000000000000600052601260045260246000fd5b600061298782611b98565b915061299283611b98565b9250826129a2576129a161294d565b5b828204905092915050565b60006129b882611b98565b91506129c383611b98565b9250828210156129d6576129d56127ed565b5b828203905092915050565b60006129ec82611b98565b91506129f783611b98565b925082612a0757612a0661294d565b5b828206905092915050565b7f455243313135353a2069647320616e6420616d6f756e7473206c656e6774682060008201527f6d69736d61746368000000000000000000000000000000000000000000000000602082015250565b6000612a6e602883611cfe565b9150612a7982612a12565b604082019050919050565b60006020820190508181036000830152612a9d81612a61565b9050919050565b7f455243313135353a207472616e7366657220746f20746865207a65726f20616460008201527f6472657373000000000000000000000000000000000000000000000000000000602082015250565b6000612b00602583611cfe565b9150612b0b82612aa4565b604082019050919050565b60006020820190508181036000830152612b2f81612af3565b9050919050565b7f455243313135353a20696e73756666696369656e742062616c616e636520666f60008201527f72207472616e7366657200000000000000000000000000000000000000000000602082015250565b6000612b92602a83611cfe565b9150612b9d82612b36565b604082019050919050565b60006020820190508181036000830152612bc181612b85565b9050919050565b60006040820190508181036000830152612be28185612242565b90508181036020830152612bf68184612242565b90509392505050565b7f4f776e61626c653a2063616c6c6572206973206e6f7420746865206f776e6572600082015250565b6000612c35602083611cfe565b9150612c4082612bff565b602082019050919050565b60006020820190508181036000830152612c6481612c28565b9050919050565b7f455243313135353a206d696e7420746f20746865207a65726f2061646472657360008201527f7300000000000000000000000000000000000000000000000000000000000000602082015250565b6000612cc7602183611cfe565b9150612cd282612c6b565b604082019050919050565b60006020820190508181036000830152612cf681612cba565b9050919050565b6000604082019050612d126000830185611c0e565b612d1f6020830184611c0e565b9392505050565b7f455243313135353a2073657474696e6720617070726f76616c2073746174757360008201527f20666f722073656c660000000000000000000000000000000000000000000000602082015250565b6000612d82602983611cfe565b9150612d8d82612d26565b604082019050919050565b60006020820190508181036000830152612db181612d75565b9050919050565b600081519050919050565b600082825260208201905092915050565b6000612ddf82612db8565b612de98185612dc3565b9350612df9818560208601611d0f565b612e0281611d42565b840191505092915050565b600060a082019050612e2260008301886122c2565b612e2f60208301876122c2565b8181036040830152612e418186612242565b90508181036060830152612e558185612242565b90508181036080830152612e698184612dd4565b90509695505050505050565b600081519050612e8481611c64565b92915050565b600060208284031215612ea057612e9f611b30565b5b6000612eae84828501612e75565b91505092915050565b60008160e01c9050919050565b600060033d1115612ee35760046000803e612ee0600051612eb7565b90505b90565b600060443d1015612ef657612f79565b612efe611b26565b60043d036004823e80513d602482011167ffffffffffffffff82111715612f26575050612f79565b808201805167ffffffffffffffff811115612f445750505050612f79565b80602083010160043d038501811115612f61575050505050612f79565b612f7082602001850186611e0f565b82955050505050505b90565b7f455243313135353a207472616e7366657220746f206e6f6e204552433131353560008201527f526563656976657220696d706c656d656e746572000000000000000000000000602082015250565b6000612fd8603483611cfe565b9150612fe382612f7c565b604082019050919050565b6000602082019050818103600083015261300781612fcb565b9050919050565b7f455243313135353a204552433131353552656365697665722072656a6563746560008201527f6420746f6b656e73000000000000000000000000000000000000000000000000602082015250565b600061306a602883611cfe565b91506130758261300e565b604082019050919050565b600060208201905081810360008301526130998161305d565b9050919050565b600060a0820190506130b560008301886122c2565b6130c260208301876122c2565b6130cf6040830186611c0e565b6130dc6060830185611c0e565b81810360808301526130ee8184612dd4565b9050969550505050505056fea26469706673582212206159b24d962a17d261e87742e6d3518f26090cbdb36b55caa25294a2f028972564736f6c63430008090033",
  "linkReferences": {},
  "deployedLinkReferences": {}
}